{
  "_format": "hh-sol-artifact-1",
  "contractName": "Web3RSVP",
  "sourceName": "contracts/Web3RSVP.sol",
  "abi": [
    {
      "anonymous": false,
      "inputs": [
        {
          "indexed": false,
          "internalType": "bytes32",
          "name": "eventID",
          "type": "bytes32"
        },
        {
          "indexed": false,
          "internalType": "address",
          "name": "attendeeAddress",
          "type": "address"
        }
      ],
      "name": "ConfirmedAttendee",
      "type": "event"
    },
    {
      "anonymous": false,
      "inputs": [
        {
          "indexed": false,
          "internalType": "bytes32",
          "name": "eventID",
          "type": "bytes32"
        }
      ],
      "name": "DepositsPaidOut",
      "type": "event"
    },
    {
      "anonymous": false,
      "inputs": [
        {
          "indexed": false,
          "internalType": "bytes32",
          "name": "eventID",
          "type": "bytes32"
        },
        {
          "indexed": false,
          "internalType": "address",
          "name": "creatorAddress",
          "type": "address"
        },
        {
          "indexed": false,
          "internalType": "uint256",
          "name": "eventTimestamp",
          "type": "uint256"
        },
        {
          "indexed": false,
          "internalType": "uint256",
          "name": "maxCapacity",
          "type": "uint256"
        },
        {
          "indexed": false,
          "internalType": "uint256",
          "name": "deposit",
          "type": "uint256"
        },
        {
          "indexed": false,
          "internalType": "string",
          "name": "eventDataCID",
          "type": "string"
        }
      ],
      "name": "NewEventCreated",
      "type": "event"
    },
    {
      "anonymous": false,
      "inputs": [
        {
          "indexed": false,
          "internalType": "bytes32",
          "name": "eventID",
          "type": "bytes32"
        },
        {
          "indexed": false,
          "internalType": "address",
          "name": "attendeeAddress",
          "type": "address"
        }
      ],
      "name": "NewRSVP",
      "type": "event"
    },
    {
      "inputs": [
        {
          "internalType": "bytes32",
          "name": "eventId",
          "type": "bytes32"
        }
      ],
      "name": "confirmAllAttendees",
      "outputs": [],
      "stateMutability": "nonpayable",
      "type": "function"
    },
    {
      "inputs": [
        {
          "internalType": "bytes32",
          "name": "eventId",
          "type": "bytes32"
        },
        {
          "internalType": "address",
          "name": "attendee",
          "type": "address"
        }
      ],
      "name": "confirmAttendee",
      "outputs": [],
      "stateMutability": "nonpayable",
      "type": "function"
    },
    {
      "inputs": [
        {
          "internalType": "uint256",
          "name": "eventTimestamp",
          "type": "uint256"
        },
        {
          "internalType": "uint256",
          "name": "deposit",
          "type": "uint256"
        },
        {
          "internalType": "uint256",
          "name": "maxCapacity",
          "type": "uint256"
        },
        {
          "internalType": "string",
          "name": "eventDataCID",
          "type": "string"
        }
      ],
      "name": "createNewEvent",
      "outputs": [],
      "stateMutability": "nonpayable",
      "type": "function"
    },
    {
      "inputs": [
        {
          "internalType": "bytes32",
          "name": "eventId",
          "type": "bytes32"
        }
      ],
      "name": "createNewRSVP",
      "outputs": [],
      "stateMutability": "payable",
      "type": "function"
    },
    {
      "inputs": [
        {
          "internalType": "bytes32",
          "name": "",
          "type": "bytes32"
        }
      ],
      "name": "idToEvent",
      "outputs": [
        {
          "internalType": "bytes32",
          "name": "eventId",
          "type": "bytes32"
        },
        {
          "internalType": "string",
          "name": "eventDataCID",
          "type": "string"
        },
        {
          "internalType": "address",
          "name": "eventOwner",
          "type": "address"
        },
        {
          "internalType": "uint256",
          "name": "eventTimestamp",
          "type": "uint256"
        },
        {
          "internalType": "uint256",
          "name": "deposit",
          "type": "uint256"
        },
        {
          "internalType": "uint256",
          "name": "maxCapacity",
          "type": "uint256"
        },
        {
          "internalType": "bool",
          "name": "paidOut",
          "type": "bool"
        }
      ],
      "stateMutability": "view",
      "type": "function"
    },
    {
      "inputs": [
        {
          "internalType": "bytes32",
          "name": "eventId",
          "type": "bytes32"
        }
      ],
      "name": "withdrawUnclaimedDeposits",
      "outputs": [],
      "stateMutability": "nonpayable",
      "type": "function"
    }
  ],
  "bytecode": "0x608060405234801561001057600080fd5b50612014806100206000396000f3fe6080604052600436106100545760003560e01c806292098c1461005957806317f0165a146100825780636dcdf2cd1461009e57806379747571146100c7578063909ef021146100f0578063acdbe01214610133575b600080fd5b34801561006557600080fd5b50610080600480360381019061007b919061135b565b61015c565b005b61009c60048036038101906100979190611419565b610378565b005b3480156100aa57600080fd5b506100c560048036038101906100c091906114a4565b6105e5565b005b3480156100d357600080fd5b506100ee60048036038101906100e99190611419565b610abe565b005b3480156100fc57600080fd5b5061011760048036038101906101129190611419565b610d61565b60405161012a97969594939291906115c5565b60405180910390f35b34801561013f57600080fd5b5061015a60048036038101906101559190611419565b610e58565b005b600033308787876040516020016101779594939291906116a4565b60405160208183030381529060405280519060200120905060608060405180610120016040528084815260200186868080601f016020809104026020016040519081016040528093929190818152602001838380828437600081840152601f19601f8201169050808301925050505050505081526020013373ffffffffffffffffffffffffffffffffffffffff16815260200189815260200188815260200187815260200183815260200182815260200160001515815250600080858152602001908152602001600020600082015181600001556020820151816001019080519060200190610267929190611189565b5060408201518160020160006101000a81548173ffffffffffffffffffffffffffffffffffffffff021916908373ffffffffffffffffffffffffffffffffffffffff160217905550606082015181600301556080820151816004015560a0820151816005015560c08201518160060190805190602001906102e992919061120f565b5060e082015181600701908051906020019061030692919061120f565b506101008201518160080160006101000a81548160ff0219169083151502179055509050507f2553138c3f9c9008f266dbdbe9fc64f5b71e098d06ef714a190a65a8b9fc6bf383338a898b8a8a604051610366979695949392919061173f565b60405180910390a15050505050505050565b60008060008381526020019081526020016000209050806004015434146103d4576040517f08c379a00000000000000000000000000000000000000000000000000000000081526004016103cb906117f5565b60405180910390fd5b806003015442111561041b576040517f08c379a000000000000000000000000000000000000000000000000000000000815260040161041290611861565b60405180910390fd5b8060050154816006018054905010610468576040517f08c379a000000000000000000000000000000000000000000000000000000000815260040161045f906118f3565b60405180910390fd5b60005b81600601805490508160ff161015610542573373ffffffffffffffffffffffffffffffffffffffff16826006018260ff16815481106104ad576104ac611913565b5b9060005260206000200160009054906101000a900473ffffffffffffffffffffffffffffffffffffffff1673ffffffffffffffffffffffffffffffffffffffff16141561052f576040517f08c379a00000000000000000000000000000000000000000000000000000000081526004016105269061198e565b60405180910390fd5b808061053a906119ea565b91505061046b565b5080600601339080600181540180825580915050600190039060005260206000200160009091909190916101000a81548173ffffffffffffffffffffffffffffffffffffffff021916908373ffffffffffffffffffffffffffffffffffffffff1602179055507fb79f4240bbdd272d98e02a5db7f0cf156e5fc000961c517670a26eeeec63ed9082336040516105d9929190611a14565b60405180910390a15050565b600080600084815260200190815260200160002090508060020160009054906101000a900473ffffffffffffffffffffffffffffffffffffffff1673ffffffffffffffffffffffffffffffffffffffff163373ffffffffffffffffffffffffffffffffffffffff161461068d576040517f08c379a000000000000000000000000000000000000000000000000000000000815260040161068490611a89565b60405180910390fd5b600080600090505b82600601805490508160ff161015610778578373ffffffffffffffffffffffffffffffffffffffff16836006018260ff16815481106106d7576106d6611913565b5b9060005260206000200160009054906101000a900473ffffffffffffffffffffffffffffffffffffffff1673ffffffffffffffffffffffffffffffffffffffff16141561076557826006018160ff168154811061073757610736611913565b5b9060005260206000200160009054906101000a900473ffffffffffffffffffffffffffffffffffffffff1691505b8080610770906119ea565b915050610695565b508273ffffffffffffffffffffffffffffffffffffffff168173ffffffffffffffffffffffffffffffffffffffff16146107e7576040517f08c379a00000000000000000000000000000000000000000000000000000000081526004016107de90611af5565b60405180910390fd5b60005b82600701805490508160ff1610156108c1578373ffffffffffffffffffffffffffffffffffffffff16836007018260ff168154811061082c5761082b611913565b5b9060005260206000200160009054906101000a900473ffffffffffffffffffffffffffffffffffffffff1673ffffffffffffffffffffffffffffffffffffffff1614156108ae576040517f08c379a00000000000000000000000000000000000000000000000000000000081526004016108a590611b61565b60405180910390fd5b80806108b9906119ea565b9150506107ea565b50600015158260080160009054906101000a900460ff1615151461091a576040517f08c379a000000000000000000000000000000000000000000000000000000000815260040161091190611bcd565b60405180910390fd5b81600701839080600181540180825580915050600190039060005260206000200160009091909190916101000a81548173ffffffffffffffffffffffffffffffffffffffff021916908373ffffffffffffffffffffffffffffffffffffffff16021790555060008373ffffffffffffffffffffffffffffffffffffffff1683600401546040516109a990611c1e565b60006040518083038185875af1925050503d80600081146109e6576040519150601f19603f3d011682016040523d82523d6000602084013e6109eb565b606091505b5050905080610a3e5782600701805480610a0857610a07611c33565b5b6001900381819060005260206000200160006101000a81549073ffffffffffffffffffffffffffffffffffffffff021916905590555b80610a7e576040517f08c379a0000000000000000000000000000000000000000000000000000000008152600401610a7590611cae565b60405180910390fd5b7ff8d1583a733d83bdd3ef5464129d0a95a36d62b382d31c6d0467a61f4264381b8585604051610aaf929190611a14565b60405180910390a15050505050565b600080600083815260200190815260200160002090508060080160009054906101000a900460ff1615610b26576040517f08c379a0000000000000000000000000000000000000000000000000000000008152600401610b1d90611d1a565b60405180910390fd5b62093a808160030154610b399190611d3a565b421015610b7b576040517f08c379a0000000000000000000000000000000000000000000000000000000008152600401610b7290611ddc565b60405180910390fd5b8060020160009054906101000a900473ffffffffffffffffffffffffffffffffffffffff1673ffffffffffffffffffffffffffffffffffffffff163373ffffffffffffffffffffffffffffffffffffffff1614610c0d576040517f08c379a0000000000000000000000000000000000000000000000000000000008152600401610c0490611e48565b60405180910390fd5b600081600701805490508260060180549050610c299190611e68565b90506000826004015482610c3d9190611e9c565b905060018360080160006101000a81548160ff02191690831515021790555060003373ffffffffffffffffffffffffffffffffffffffff1682604051610c8290611c1e565b60006040518083038185875af1925050503d8060008114610cbf576040519150601f19603f3d011682016040523d82523d6000602084013e610cc4565b606091505b5050905080610ce357600015158460080160009054906101000a905050505b80610d23576040517f08c379a0000000000000000000000000000000000000000000000000000000008152600401610d1a90611f42565b60405180910390fd5b7f393073ea1365f611c3d2f240c992960d2b99dc81715555d3fc40fc55ba80af9c85604051610d529190611f62565b60405180910390a15050505050565b6000602052806000526040600020600091509050806000015490806001018054610d8a90611fac565b80601f0160208091040260200160405190810160405280929190818152602001828054610db690611fac565b8015610e035780601f10610dd857610100808354040283529160200191610e03565b820191906000526020600020905b815481529060010190602001808311610de657829003601f168201915b5050505050908060020160009054906101000a900473ffffffffffffffffffffffffffffffffffffffff16908060030154908060040154908060050154908060080160009054906101000a900460ff16905087565b60008060008381526020019081526020016000206040518061012001604052908160008201548152602001600182018054610e9290611fac565b80601f0160208091040260200160405190810160405280929190818152602001828054610ebe90611fac565b8015610f0b5780601f10610ee057610100808354040283529160200191610f0b565b820191906000526020600020905b815481529060010190602001808311610eee57829003601f168201915b505050505081526020016002820160009054906101000a900473ffffffffffffffffffffffffffffffffffffffff1673ffffffffffffffffffffffffffffffffffffffff1673ffffffffffffffffffffffffffffffffffffffff1681526020016003820154815260200160048201548152602001600582015481526020016006820180548060200260200160405190810160405280929190818152602001828054801561100d57602002820191906000526020600020905b8160009054906101000a900473ffffffffffffffffffffffffffffffffffffffff1673ffffffffffffffffffffffffffffffffffffffff1681526020019060010190808311610fc3575b505050505081526020016007820180548060200260200160405190810160405280929190818152602001828054801561109b57602002820191906000526020600020905b8160009054906101000a900473ffffffffffffffffffffffffffffffffffffffff1673ffffffffffffffffffffffffffffffffffffffff1681526020019060010190808311611051575b505050505081526020016008820160009054906101000a900460ff1615151515815250509050806040015173ffffffffffffffffffffffffffffffffffffffff163373ffffffffffffffffffffffffffffffffffffffff1614611133576040517f08c379a000000000000000000000000000000000000000000000000000000000815260040161112a90611a89565b60405180910390fd5b60005b8160c00151518160ff16101561118457611171838360c001518360ff168151811061116457611163611913565b5b60200260200101516105e5565b808061117c906119ea565b915050611136565b505050565b82805461119590611fac565b90600052602060002090601f0160209004810192826111b757600085556111fe565b82601f106111d057805160ff19168380011785556111fe565b828001600101855582156111fe579182015b828111156111fd5782518255916020019190600101906111e2565b5b50905061120b9190611299565b5090565b828054828255906000526020600020908101928215611288579160200282015b828111156112875782518260006101000a81548173ffffffffffffffffffffffffffffffffffffffff021916908373ffffffffffffffffffffffffffffffffffffffff1602179055509160200191906001019061122f565b5b5090506112959190611299565b5090565b5b808211156112b257600081600090555060010161129a565b5090565b600080fd5b600080fd5b6000819050919050565b6112d3816112c0565b81146112de57600080fd5b50565b6000813590506112f0816112ca565b92915050565b600080fd5b600080fd5b600080fd5b60008083601f84011261131b5761131a6112f6565b5b8235905067ffffffffffffffff811115611338576113376112fb565b5b60208301915083600182028301111561135457611353611300565b5b9250929050565b600080600080600060808688031215611377576113766112b6565b5b6000611385888289016112e1565b9550506020611396888289016112e1565b94505060406113a7888289016112e1565b935050606086013567ffffffffffffffff8111156113c8576113c76112bb565b5b6113d488828901611305565b92509250509295509295909350565b6000819050919050565b6113f6816113e3565b811461140157600080fd5b50565b600081359050611413816113ed565b92915050565b60006020828403121561142f5761142e6112b6565b5b600061143d84828501611404565b91505092915050565b600073ffffffffffffffffffffffffffffffffffffffff82169050919050565b600061147182611446565b9050919050565b61148181611466565b811461148c57600080fd5b50565b60008135905061149e81611478565b92915050565b600080604083850312156114bb576114ba6112b6565b5b60006114c985828601611404565b92505060206114da8582860161148f565b9150509250929050565b6114ed816113e3565b82525050565b600081519050919050565b600082825260208201905092915050565b60005b8381101561152d578082015181840152602081019050611512565b8381111561153c576000848401525b50505050565b6000601f19601f8301169050919050565b600061155e826114f3565b61156881856114fe565b935061157881856020860161150f565b61158181611542565b840191505092915050565b61159581611466565b82525050565b6115a4816112c0565b82525050565b60008115159050919050565b6115bf816115aa565b82525050565b600060e0820190506115da600083018a6114e4565b81810360208301526115ec8189611553565b90506115fb604083018861158c565b611608606083018761159b565b611615608083018661159b565b61162260a083018561159b565b61162f60c08301846115b6565b98975050505050505050565b60008160601b9050919050565b60006116538261163b565b9050919050565b600061166582611648565b9050919050565b61167d61167882611466565b61165a565b82525050565b6000819050919050565b61169e611699826112c0565b611683565b82525050565b60006116b0828861166c565b6014820191506116c0828761166c565b6014820191506116d0828661168d565b6020820191506116e0828561168d565b6020820191506116f0828461168d565b6020820191508190509695505050505050565b82818337600083830152505050565b600061171e83856114fe565b935061172b838584611703565b61173483611542565b840190509392505050565b600060c082019050611754600083018a6114e4565b611761602083018961158c565b61176e604083018861159b565b61177b606083018761159b565b611788608083018661159b565b81810360a083015261179b818486611712565b905098975050505050505050565b7f4e4f5420454e4f55474800000000000000000000000000000000000000000000600082015250565b60006117df600a836114fe565b91506117ea826117a9565b602082019050919050565b6000602082019050818103600083015261180e816117d2565b9050919050565b7f414c52454144592048415050454e454400000000000000000000000000000000600082015250565b600061184b6010836114fe565b915061185682611815565b602082019050919050565b6000602082019050818103600083015261187a8161183e565b9050919050565b7f54686973206576656e742068617320726561636865642069747320636170616360008201527f6974790000000000000000000000000000000000000000000000000000000000602082015250565b60006118dd6023836114fe565b91506118e882611881565b604082019050919050565b6000602082019050818103600083015261190c816118d0565b9050919050565b7f4e487b7100000000000000000000000000000000000000000000000000000000600052603260045260246000fd5b7f414c524541445920434f4e4649524d4544000000000000000000000000000000600082015250565b60006119786011836114fe565b915061198382611942565b602082019050919050565b600060208201905081810360008301526119a78161196b565b9050919050565b7f4e487b7100000000000000000000000000000000000000000000000000000000600052601160045260246000fd5b600060ff82169050919050565b60006119f5826119dd565b915060ff821415611a0957611a086119ae565b5b600182019050919050565b6000604082019050611a2960008301856114e4565b611a36602083018461158c565b9392505050565b7f4e4f5420415554484f52495a4544000000000000000000000000000000000000600082015250565b6000611a73600e836114fe565b9150611a7e82611a3d565b602082019050919050565b60006020820190508181036000830152611aa281611a66565b9050919050565b7f4e4f205253565020544f20434f4e4649524d0000000000000000000000000000600082015250565b6000611adf6012836114fe565b9150611aea82611aa9565b602082019050919050565b60006020820190508181036000830152611b0e81611ad2565b9050919050565b7f414c524541445920434c41494d45440000000000000000000000000000000000600082015250565b6000611b4b600f836114fe565b9150611b5682611b15565b602082019050919050565b60006020820190508181036000830152611b7a81611b3e565b9050919050565b7f414c52454144592050414944204f555400000000000000000000000000000000600082015250565b6000611bb76010836114fe565b9150611bc282611b81565b602082019050919050565b60006020820190508181036000830152611be681611baa565b9050919050565b600081905092915050565b50565b6000611c08600083611bed565b9150611c1382611bf8565b600082019050919050565b6000611c2982611bfb565b9150819050919050565b7f4e487b7100000000000000000000000000000000000000000000000000000000600052603160045260246000fd5b7f6661696c656420746f2073656e64206574686572000000000000000000000000600082015250565b6000611c986014836114fe565b9150611ca382611c62565b602082019050919050565b60006020820190508181036000830152611cc781611c8b565b9050919050565b7f414c524541445920504149440000000000000000000000000000000000000000600082015250565b6000611d04600c836114fe565b9150611d0f82611cce565b602082019050919050565b60006020820190508181036000830152611d3381611cf7565b9050919050565b6000611d45826112c0565b9150611d50836112c0565b9250827fffffffffffffffffffffffffffffffffffffffffffffffffffffffffffffffff03821115611d8557611d846119ae565b5b828201905092915050565b7f544f4f204541524c590000000000000000000000000000000000000000000000600082015250565b6000611dc66009836114fe565b9150611dd182611d90565b602082019050919050565b60006020820190508181036000830152611df581611db9565b9050919050565b7f4d555354204245204556454e54204f574e455200000000000000000000000000600082015250565b6000611e326013836114fe565b9150611e3d82611dfc565b602082019050919050565b60006020820190508181036000830152611e6181611e25565b9050919050565b6000611e73826112c0565b9150611e7e836112c0565b925082821015611e9157611e906119ae565b5b828203905092915050565b6000611ea7826112c0565b9150611eb2836112c0565b9250817fffffffffffffffffffffffffffffffffffffffffffffffffffffffffffffffff0483118215151615611eeb57611eea6119ae565b5b828202905092915050565b7f4661696c656420746f2073656e64204574686572000000000000000000000000600082015250565b6000611f2c6014836114fe565b9150611f3782611ef6565b602082019050919050565b60006020820190508181036000830152611f5b81611f1f565b9050919050565b6000602082019050611f7760008301846114e4565b92915050565b7f4e487b7100000000000000000000000000000000000000000000000000000000600052602260045260246000fd5b60006002820490506001821680611fc457607f821691505b60208210811415611fd857611fd7611f7d565b5b5091905056fea264697066735822122073ef052f6666bbc30b535ee00c8e00141c00c442d0026a7f5e35dcbe1fcdc6ec64736f6c63430008090033",
  "linkReferences": {},
  "deployedLinkReferences": {}
}